{
  "contractName": "Ecommerce",
  "abi": [
    {
      "inputs": [],
      "stateMutability": "nonpayable",
      "type": "constructor"
    },
    {
      "anonymous": false,
      "inputs": [
        {
          "indexed": false,
          "internalType": "uint256",
          "name": "id",
          "type": "uint256"
        },
        {
          "indexed": false,
          "internalType": "string",
          "name": "name",
          "type": "string"
        },
        {
          "indexed": false,
          "internalType": "uint256",
          "name": "price",
          "type": "uint256"
        },
        {
          "indexed": false,
          "internalType": "string",
          "name": "image",
          "type": "string"
        },
        {
          "indexed": false,
          "internalType": "address payable",
          "name": "owner",
          "type": "address"
        },
        {
          "indexed": false,
          "internalType": "bool",
          "name": "purchased",
          "type": "bool"
        }
      ],
      "name": "ProductCreated",
      "type": "event"
    },
    {
      "anonymous": false,
      "inputs": [
        {
          "indexed": false,
          "internalType": "uint256",
          "name": "id",
          "type": "uint256"
        },
        {
          "indexed": false,
          "internalType": "string",
          "name": "name",
          "type": "string"
        },
        {
          "indexed": false,
          "internalType": "uint256",
          "name": "price",
          "type": "uint256"
        },
        {
          "indexed": false,
          "internalType": "string",
          "name": "image",
          "type": "string"
        },
        {
          "indexed": false,
          "internalType": "address payable",
          "name": "owner",
          "type": "address"
        },
        {
          "indexed": false,
          "internalType": "bool",
          "name": "purchased",
          "type": "bool"
        }
      ],
      "name": "ProductPurchased",
      "type": "event"
    },
    {
      "inputs": [],
      "name": "name",
      "outputs": [
        {
          "internalType": "string",
          "name": "",
          "type": "string"
        }
      ],
      "stateMutability": "view",
      "type": "function",
      "constant": true
    },
    {
      "inputs": [],
      "name": "productCount",
      "outputs": [
        {
          "internalType": "uint256",
          "name": "",
          "type": "uint256"
        }
      ],
      "stateMutability": "view",
      "type": "function",
      "constant": true
    },
    {
      "inputs": [
        {
          "internalType": "uint256",
          "name": "",
          "type": "uint256"
        }
      ],
      "name": "products",
      "outputs": [
        {
          "internalType": "uint256",
          "name": "id",
          "type": "uint256"
        },
        {
          "internalType": "string",
          "name": "name",
          "type": "string"
        },
        {
          "internalType": "uint256",
          "name": "price",
          "type": "uint256"
        },
        {
          "internalType": "string",
          "name": "image",
          "type": "string"
        },
        {
          "internalType": "address payable",
          "name": "owner",
          "type": "address"
        },
        {
          "internalType": "bool",
          "name": "purchased",
          "type": "bool"
        }
      ],
      "stateMutability": "view",
      "type": "function",
      "constant": true
    },
    {
      "inputs": [
        {
          "internalType": "string",
          "name": "_name",
          "type": "string"
        },
        {
          "internalType": "uint256",
          "name": "_price",
          "type": "uint256"
        },
        {
          "internalType": "string",
          "name": "_image",
          "type": "string"
        }
      ],
      "name": "createProduct",
      "outputs": [],
      "stateMutability": "nonpayable",
      "type": "function"
    },
    {
      "inputs": [
        {
          "internalType": "uint256",
          "name": "_id",
          "type": "uint256"
        }
      ],
      "name": "purchaseProduct",
      "outputs": [],
      "stateMutability": "payable",
      "type": "function",
      "payable": true
    }
  ],
  "bytecode": "0x608060405260006001553480156200001657600080fd5b506040518060600160405280602a8152602001620013d9602a913960009081620000419190620002c2565b50620003a9565b600081519050919050565b7f4e487b7100000000000000000000000000000000000000000000000000000000600052604160045260246000fd5b7f4e487b7100000000000000000000000000000000000000000000000000000000600052602260045260246000fd5b60006002820490506001821680620000ca57607f821691505b602082108103620000e057620000df62000082565b5b50919050565b60008190508160005260206000209050919050565b60006020601f8301049050919050565b600082821b905092915050565b6000600883026200014a7fffffffffffffffffffffffffffffffffffffffffffffffffffffffffffffffff826200010b565b6200015686836200010b565b95508019841693508086168417925050509392505050565b6000819050919050565b6000819050919050565b6000620001a36200019d62000197846200016e565b62000178565b6200016e565b9050919050565b6000819050919050565b620001bf8362000182565b620001d7620001ce82620001aa565b84845462000118565b825550505050565b600090565b620001ee620001df565b620001fb818484620001b4565b505050565b5b81811015620002235762000217600082620001e4565b60018101905062000201565b5050565b601f82111562000272576200023c81620000e6565b6200024784620000fb565b8101602085101562000257578190505b6200026f6200026685620000fb565b83018262000200565b50505b505050565b600082821c905092915050565b6000620002976000198460080262000277565b1980831691505092915050565b6000620002b2838362000284565b9150826002028217905092915050565b620002cd8262000048565b67ffffffffffffffff811115620002e957620002e862000053565b5b620002f58254620000b1565b6200030282828562000227565b600060209050601f8311600181146200033a576000841562000325578287015190505b620003318582620002a4565b865550620003a1565b601f1984166200034a86620000e6565b60005b8281101562000374578489015182556001820191506020850194506020810190506200034d565b8683101562000394578489015162000390601f89168262000284565b8355505b6001600288020188555050505b505050505050565b61102080620003b96000396000f3fe60806040526004361061004a5760003560e01c806306fdde031461004f57806338e76a031461007a5780637acc0b2014610096578063e0f6ef87146100d8578063ff38ec0f14610103575b600080fd5b34801561005b57600080fd5b5061006461012c565b6040516100719190610947565b60405180910390f35b610094600480360381019061008f91906109b3565b6101ba565b005b3480156100a257600080fd5b506100bd60048036038101906100b891906109b3565b6105ac565b6040516100cf96959493929190610a4b565b60405180910390f35b3480156100e457600080fd5b506100ed610725565b6040516100fa9190610aba565b60405180910390f35b34801561010f57600080fd5b5061012a60048036038101906101259190610c0a565b61072b565b005b6000805461013990610cc4565b80601f016020809104026020016040519081016040528092919081815260200182805461016590610cc4565b80156101b25780601f10610187576101008083540402835291602001916101b2565b820191906000526020600020905b81548152906001019060200180831161019557829003601f168201915b505050505081565b6000600260008381526020019081526020016000206040518060c0016040529081600082015481526020016001820180546101f490610cc4565b80601f016020809104026020016040519081016040528092919081815260200182805461022090610cc4565b801561026d5780601f106102425761010080835404028352916020019161026d565b820191906000526020600020905b81548152906001019060200180831161025057829003601f168201915b505050505081526020016002820154815260200160038201805461029090610cc4565b80601f01602080910402602001604051908101604052809291908181526020018280546102bc90610cc4565b80156103095780601f106102de57610100808354040283529160200191610309565b820191906000526020600020905b8154815290600101906020018083116102ec57829003601f168201915b505050505081526020016004820160009054906101000a900473ffffffffffffffffffffffffffffffffffffffff1673ffffffffffffffffffffffffffffffffffffffff1673ffffffffffffffffffffffffffffffffffffffff1681526020016004820160149054906101000a900460ff1615151515815250509050600081608001519050600082600001511180156103a85750600154826000015111155b6103b157600080fd5b81604001513410156103c257600080fd5b8160a00151156103d157600080fd5b3373ffffffffffffffffffffffffffffffffffffffff168173ffffffffffffffffffffffffffffffffffffffff160361040957600080fd5b33826080019073ffffffffffffffffffffffffffffffffffffffff16908173ffffffffffffffffffffffffffffffffffffffff168152505060018260a001901515908115158152505081600260008581526020019081526020016000206000820151816000015560208201518160010190816104859190610ea1565b506040820151816002015560608201518160030190816104a59190610ea1565b5060808201518160040160006101000a81548173ffffffffffffffffffffffffffffffffffffffff021916908373ffffffffffffffffffffffffffffffffffffffff16021790555060a08201518160040160146101000a81548160ff0219169083151502179055509050508073ffffffffffffffffffffffffffffffffffffffff166108fc349081150290604051600060405180830381858888f19350505050158015610556573d6000803e3d6000fd5b507f51d5efda86089031ebc8356fe0f58f1d1bc46538d67bca7b95950e9053f886ed60015483602001518460400151856060015133600160405161059f96959493929190610a4b565b60405180910390a1505050565b60026020528060005260406000206000915090508060000154908060010180546105d590610cc4565b80601f016020809104026020016040519081016040528092919081815260200182805461060190610cc4565b801561064e5780601f106106235761010080835404028352916020019161064e565b820191906000526020600020905b81548152906001019060200180831161063157829003601f168201915b50505050509080600201549080600301805461066990610cc4565b80601f016020809104026020016040519081016040528092919081815260200182805461069590610cc4565b80156106e25780601f106106b7576101008083540402835291602001916106e2565b820191906000526020600020905b8154815290600101906020018083116106c557829003601f168201915b5050505050908060040160009054906101000a900473ffffffffffffffffffffffffffffffffffffffff16908060040160149054906101000a900460ff16905086565b60015481565b600083511161073957600080fd5b6000821161074657600080fd5b6001600081548092919061075990610fa2565b91905055506040518060c0016040528060015481526020018481526020018381526020018281526020013373ffffffffffffffffffffffffffffffffffffffff168152602001600015158152506002600060015481526020019081526020016000206000820151816000015560208201518160010190816107da9190610ea1565b506040820151816002015560608201518160030190816107fa9190610ea1565b5060808201518160040160006101000a81548173ffffffffffffffffffffffffffffffffffffffff021916908373ffffffffffffffffffffffffffffffffffffffff16021790555060a08201518160040160146101000a81548160ff0219169083151502179055509050507f61ecd7a78d5a27ec4cdfb40c88af4af98e472ef75dce549e20a169b2fe9f6a2f6001548484843360006040516108a196959493929190610a4b565b60405180910390a1505050565b600081519050919050565b600082825260208201905092915050565b60005b838110156108e85780820151818401526020810190506108cd565b838111156108f7576000848401525b50505050565b6000601f19601f8301169050919050565b6000610919826108ae565b61092381856108b9565b93506109338185602086016108ca565b61093c816108fd565b840191505092915050565b60006020820190508181036000830152610961818461090e565b905092915050565b6000604051905090565b600080fd5b600080fd5b6000819050919050565b6109908161097d565b811461099b57600080fd5b50565b6000813590506109ad81610987565b92915050565b6000602082840312156109c9576109c8610973565b5b60006109d78482850161099e565b91505092915050565b6109e98161097d565b82525050565b600073ffffffffffffffffffffffffffffffffffffffff82169050919050565b6000610a1a826109ef565b9050919050565b610a2a81610a0f565b82525050565b60008115159050919050565b610a4581610a30565b82525050565b600060c082019050610a6060008301896109e0565b8181036020830152610a72818861090e565b9050610a8160408301876109e0565b8181036060830152610a93818661090e565b9050610aa26080830185610a21565b610aaf60a0830184610a3c565b979650505050505050565b6000602082019050610acf60008301846109e0565b92915050565b600080fd5b600080fd5b7f4e487b7100000000000000000000000000000000000000000000000000000000600052604160045260246000fd5b610b17826108fd565b810181811067ffffffffffffffff82111715610b3657610b35610adf565b5b80604052505050565b6000610b49610969565b9050610b558282610b0e565b919050565b600067ffffffffffffffff821115610b7557610b74610adf565b5b610b7e826108fd565b9050602081019050919050565b82818337600083830152505050565b6000610bad610ba884610b5a565b610b3f565b905082815260208101848484011115610bc957610bc8610ada565b5b610bd4848285610b8b565b509392505050565b600082601f830112610bf157610bf0610ad5565b5b8135610c01848260208601610b9a565b91505092915050565b600080600060608486031215610c2357610c22610973565b5b600084013567ffffffffffffffff811115610c4157610c40610978565b5b610c4d86828701610bdc565b9350506020610c5e8682870161099e565b925050604084013567ffffffffffffffff811115610c7f57610c7e610978565b5b610c8b86828701610bdc565b9150509250925092565b7f4e487b7100000000000000000000000000000000000000000000000000000000600052602260045260246000fd5b60006002820490506001821680610cdc57607f821691505b602082108103610cef57610cee610c95565b5b50919050565b60008190508160005260206000209050919050565b60006020601f8301049050919050565b600082821b905092915050565b600060088302610d577fffffffffffffffffffffffffffffffffffffffffffffffffffffffffffffffff82610d1a565b610d618683610d1a565b95508019841693508086168417925050509392505050565b6000819050919050565b6000610d9e610d99610d948461097d565b610d79565b61097d565b9050919050565b6000819050919050565b610db883610d83565b610dcc610dc482610da5565b848454610d27565b825550505050565b600090565b610de1610dd4565b610dec818484610daf565b505050565b5b81811015610e1057610e05600082610dd9565b600181019050610df2565b5050565b601f821115610e5557610e2681610cf5565b610e2f84610d0a565b81016020851015610e3e578190505b610e52610e4a85610d0a565b830182610df1565b50505b505050565b600082821c905092915050565b6000610e7860001984600802610e5a565b1980831691505092915050565b6000610e918383610e67565b9150826002028217905092915050565b610eaa826108ae565b67ffffffffffffffff811115610ec357610ec2610adf565b5b610ecd8254610cc4565b610ed8828285610e14565b600060209050601f831160018114610f0b5760008415610ef9578287015190505b610f038582610e85565b865550610f6b565b601f198416610f1986610cf5565b60005b82811015610f4157848901518255600182019150602085019450602081019050610f1c565b86831015610f5e5784890151610f5a601f891682610e67565b8355505b6001600288020188555050505b505050505050565b7f4e487b7100000000000000000000000000000000000000000000000000000000600052601160045260246000fd5b6000610fad8261097d565b91507fffffffffffffffffffffffffffffffffffffffffffffffffffffffffffffffff8203610fdf57610fde610f73565b5b60018201905091905056fea2646970667358221220f7990afb0967cee8db5942d9f22ccf6feedbf0574fbec9136b9c7d189b8d971b64736f6c634300080f003345636f6d6d657263652041707020666f7220427579696e6720616e642053656c6c696e6720476f6f6473",
  "immutableReferences": {},
  "source": "pragma solidity ^0.8.0;\n\ncontract Ecommerce {\n    string public name;\n    uint256 public productCount = 0;\n    mapping(uint256 => Product) public products;\n\n    struct Product {\n        uint256 id;\n        string name;\n        uint256 price;\n        string image;\n        address payable owner;\n        bool purchased;\n    }\n\n    event ProductCreated(\n        uint256 id,\n        string name,\n        uint256 price,\n        string image,\n        address payable owner,\n        bool purchased\n    );\n\n    event ProductPurchased(\n        uint256 id,\n        string name,\n        uint256 price,\n        string image,\n        address payable owner,\n        bool purchased\n    );\n\n    constructor() public {\n        name = \"Ecommerce App for Buying and Selling Goods\";\n    }\n\n    function createProduct(\n        string memory _name,\n        uint256 _price,\n        string memory _image\n    ) public {\n        //! Require a valid name\n        require(bytes(_name).length > 0);\n        //! Require a valid price\n        require(_price > 0);\n        //todo : Increment product count\n        productCount++;\n        //todo : Create the product\n        products[productCount] = Product(\n            productCount,\n            _name,\n            _price,\n            _image,\n            payable(msg.sender),\n            false\n        );\n        //todo : trigger an event\n        emit ProductCreated(\n            productCount,\n            _name,\n            _price,\n            _image,\n            payable(msg.sender),\n            false\n        );\n    }\n\n    function purchaseProduct(uint256 _id) public payable {\n        //todo : fetch the product\n        Product memory _product = products[_id];\n        //todo : fetch the owner\n        address payable _seller = _product.owner;\n        //todo : make sure the product has a valid id\n        require(_product.id > 0 && _product.id <= productCount);\n        //todo : make sure that there is enough Ether in the transaction\n        require(msg.value >= _product.price);\n        //todo : make sure that product is not been purchased\n        require(!_product.purchased);\n        //todo : make sure that buyer is not seller\n        require(_seller != msg.sender);\n        //todo : transfer ownership to the buyer\n        _product.owner = payable(msg.sender);\n        //todo : mark as purchased\n        _product.purchased = true;\n        //todo : update the product\n        products[_id] = _product;\n        //todo : pay the seller by sending ether\n        payable(address(_seller)).transfer(msg.value);\n        //todo : trigger an event\n        emit ProductPurchased(\n            productCount,\n            _product.name,\n            _product.price,\n            _product.image,\n            payable(msg.sender),\n            true\n        );\n    }\n}\n",
  "sourcePath": "/Users/lalit/Documents/BlockChain Development/blockchainEcommerce/client/src/contracts/Ecommerce.sol",
  "compiler": {
    "name": "solc",
    "version": "0.8.15+commit.e14f2714.Emscripten.clang"
  },
  "schemaVersion": "3.4.8",
  "updatedAt": "2022-08-08T10:38:40.787Z",
  "networkType": "ethereum",
  "devdoc": {
    "kind": "dev",
    "methods": {},
    "version": 1
  },
  "userdoc": {
    "kind": "user",
    "methods": {},
    "version": 1
  }
}